{
  "_format": "hh-sol-artifact-1",
  "contractName": "MakeADonation",
  "sourceName": "contracts/MakeADonation.sol",
  "abi": [
    {
      "inputs": [],
      "stateMutability": "nonpayable",
      "type": "constructor"
    },
    {
      "anonymous": false,
      "inputs": [
        {
          "indexed": true,
          "internalType": "address",
          "name": "from",
          "type": "address"
        },
        {
          "indexed": false,
          "internalType": "uint256",
          "name": "timestamp",
          "type": "uint256"
        },
        {
          "indexed": false,
          "internalType": "string",
          "name": "name",
          "type": "string"
        },
        {
          "indexed": false,
          "internalType": "string",
          "name": "message",
          "type": "string"
        }
      ],
      "name": "NewMemo",
      "type": "event"
    },
    {
      "inputs": [],
      "name": "getMemos",
      "outputs": [
        {
          "components": [
            {
              "internalType": "address",
              "name": "from",
              "type": "address"
            },
            {
              "internalType": "uint256",
              "name": "timestamp",
              "type": "uint256"
            },
            {
              "internalType": "string",
              "name": "name",
              "type": "string"
            },
            {
              "internalType": "string",
              "name": "message",
              "type": "string"
            }
          ],
          "internalType": "struct MakeADonation.Memo[]",
          "name": "",
          "type": "tuple[]"
        }
      ],
      "stateMutability": "view",
      "type": "function"
    },
    {
      "inputs": [
        {
          "internalType": "string",
          "name": "_name",
          "type": "string"
        },
        {
          "internalType": "string",
          "name": "_message",
          "type": "string"
        }
      ],
      "name": "makeDonation",
      "outputs": [],
      "stateMutability": "payable",
      "type": "function"
    },
    {
      "inputs": [],
      "name": "withDrawDonation",
      "outputs": [],
      "stateMutability": "nonpayable",
      "type": "function"
    }
  ],
  "bytecode": "0x608060405234801561001057600080fd5b5033600160006101000a81548173ffffffffffffffffffffffffffffffffffffffff021916908373ffffffffffffffffffffffffffffffffffffffff160217905550610c6d806100616000396000f3fe6080604052600436106100345760003560e01c8063865c5172146100395780639e5be2f814610064578063c40d1a7b1461007b575b600080fd5b34801561004557600080fd5b5061004e610097565b60405161005b919061066c565b60405180910390f35b34801561007057600080fd5b5061007961027a565b005b610095600480360381019061009091906107d7565b6102dc565b005b60606000805480602002602001604051908101604052809291908181526020016000905b8282101561027157838290600052602060002090600402016040518060800160405290816000820160009054906101000a900473ffffffffffffffffffffffffffffffffffffffff1673ffffffffffffffffffffffffffffffffffffffff1673ffffffffffffffffffffffffffffffffffffffff1681526020016001820154815260200160028201805461014e9061087e565b80601f016020809104026020016040519081016040528092919081815260200182805461017a9061087e565b80156101c75780601f1061019c576101008083540402835291602001916101c7565b820191906000526020600020905b8154815290600101906020018083116101aa57829003601f168201915b505050505081526020016003820180546101e09061087e565b80601f016020809104026020016040519081016040528092919081815260200182805461020c9061087e565b80156102595780601f1061022e57610100808354040283529160200191610259565b820191906000526020600020905b81548152906001019060200180831161023c57829003601f168201915b505050505081525050815260200190600101906100bb565b50505050905090565b600160009054906101000a900473ffffffffffffffffffffffffffffffffffffffff1673ffffffffffffffffffffffffffffffffffffffff166108fc479081150290604051600060405180830381858888f193505050506102da57600080fd5b565b6000341161031f576040517f08c379a00000000000000000000000000000000000000000000000000000000081526004016103169061090c565b60405180910390fd5b600060405180608001604052803373ffffffffffffffffffffffffffffffffffffffff16815260200142815260200184815260200183815250908060018154018082558091505060019003906000526020600020906004020160009091909190915060008201518160000160006101000a81548173ffffffffffffffffffffffffffffffffffffffff021916908373ffffffffffffffffffffffffffffffffffffffff1602179055506020820151816001015560408201518160020190816103e79190610ad8565b5060608201518160030190816103fd9190610ad8565b5050503373ffffffffffffffffffffffffffffffffffffffff167fc56140e05f516509ae28110e0f72e17558a7561630dad2647c3ae87d986e365c42848460405161044a93929190610bf2565b60405180910390a25050565b600081519050919050565b600082825260208201905092915050565b6000819050602082019050919050565b600073ffffffffffffffffffffffffffffffffffffffff82169050919050565b60006104ad82610482565b9050919050565b6104bd816104a2565b82525050565b6000819050919050565b6104d6816104c3565b82525050565b600081519050919050565b600082825260208201905092915050565b60005b838110156105165780820151818401526020810190506104fb565b60008484015250505050565b6000601f19601f8301169050919050565b600061053e826104dc565b61054881856104e7565b93506105588185602086016104f8565b61056181610522565b840191505092915050565b600060808301600083015161058460008601826104b4565b50602083015161059760208601826104cd565b50604083015184820360408601526105af8282610533565b915050606083015184820360608601526105c98282610533565b9150508091505092915050565b60006105e2838361056c565b905092915050565b6000602082019050919050565b600061060282610456565b61060c8185610461565b93508360208202850161061e85610472565b8060005b8581101561065a578484038952815161063b85826105d6565b9450610646836105ea565b925060208a01995050600181019050610622565b50829750879550505050505092915050565b6000602082019050818103600083015261068681846105f7565b905092915050565b6000604051905090565b600080fd5b600080fd5b600080fd5b600080fd5b7f4e487b7100000000000000000000000000000000000000000000000000000000600052604160045260246000fd5b6106e482610522565b810181811067ffffffffffffffff82111715610703576107026106ac565b5b80604052505050565b600061071661068e565b905061072282826106db565b919050565b600067ffffffffffffffff821115610742576107416106ac565b5b61074b82610522565b9050602081019050919050565b82818337600083830152505050565b600061077a61077584610727565b61070c565b905082815260208101848484011115610796576107956106a7565b5b6107a1848285610758565b509392505050565b600082601f8301126107be576107bd6106a2565b5b81356107ce848260208601610767565b91505092915050565b600080604083850312156107ee576107ed610698565b5b600083013567ffffffffffffffff81111561080c5761080b61069d565b5b610818858286016107a9565b925050602083013567ffffffffffffffff8111156108395761083861069d565b5b610845858286016107a9565b9150509250929050565b7f4e487b7100000000000000000000000000000000000000000000000000000000600052602260045260246000fd5b6000600282049050600182168061089657607f821691505b6020821081036108a9576108a861084f565b5b50919050565b600082825260208201905092915050565b7f506c656173652073656e64206e6f6e207a65726f2076616c7565000000000000600082015250565b60006108f6601a836108af565b9150610901826108c0565b602082019050919050565b60006020820190508181036000830152610925816108e9565b9050919050565b60008190508160005260206000209050919050565b60006020601f8301049050919050565b600082821b905092915050565b60006008830261098e7fffffffffffffffffffffffffffffffffffffffffffffffffffffffffffffffff82610951565b6109988683610951565b95508019841693508086168417925050509392505050565b6000819050919050565b60006109d56109d06109cb846104c3565b6109b0565b6104c3565b9050919050565b6000819050919050565b6109ef836109ba565b610a036109fb826109dc565b84845461095e565b825550505050565b600090565b610a18610a0b565b610a238184846109e6565b505050565b5b81811015610a4757610a3c600082610a10565b600181019050610a29565b5050565b601f821115610a8c57610a5d8161092c565b610a6684610941565b81016020851015610a75578190505b610a89610a8185610941565b830182610a28565b50505b505050565b600082821c905092915050565b6000610aaf60001984600802610a91565b1980831691505092915050565b6000610ac88383610a9e565b9150826002028217905092915050565b610ae1826104dc565b67ffffffffffffffff811115610afa57610af96106ac565b5b610b04825461087e565b610b0f828285610a4b565b600060209050601f831160018114610b425760008415610b30578287015190505b610b3a8582610abc565b865550610ba2565b601f198416610b508661092c565b60005b82811015610b7857848901518255600182019150602085019450602081019050610b53565b86831015610b955784890151610b91601f891682610a9e565b8355505b6001600288020188555050505b505050505050565b610bb3816104c3565b82525050565b6000610bc4826104dc565b610bce81856108af565b9350610bde8185602086016104f8565b610be781610522565b840191505092915050565b6000606082019050610c076000830186610baa565b8181036020830152610c198185610bb9565b90508181036040830152610c2d8184610bb9565b905094935050505056fea2646970667358221220596d36dd70776da96d51b84d2ed9f221a5423552f54fbe9deb2f1450a42bf60764736f6c63430008110033",
  "linkReferences": {},
  "deployedLinkReferences": {}
}